:1000AF00303132333435363738392E2D20080D0A9A
:10009900EF1FAA0670011E4A600BE4FDEDC3946EC2
:0500A90050EE0D80F790
:0100AE00222F
:1000030075900FE590640F70030200967F1E7E00CB
:1000130012009975900FAF908F82758300E582640B
:100023000F606DE4FCE58230E00FE583C313F583D5
:10003300E58213F5820CBC04EC7590F0AF907583E8
:10004300008F82E4FBE58230E40FE583C313F5837D
:10005300E58213F5820BBB04ECE4F583F582E590AE
:1000630064F060107F1E7E00120099A3E582643263
:10007300458370EAEC25E025E024AFF582E4340003
:10008300F583E5822BF582E43583F583E493FF2240
:050093007F00227F0048
:010098002245
:0600CB00120003EF60FAD1
:0100D100220C
:0500D2001200CB8FA01D
:0100D7002206
:030000000200BF3C
:0C00BF00787FE4F6D8FD7581070200D2BE
:00000001FF
